{
	"Calculator.sol": {
		"Calculator": {
			"abi": [
				{
					"inputs": [
						{
							"internalType": "int256",
							"name": "a",
							"type": "int256"
						},
						{
							"internalType": "int256",
							"name": "b",
							"type": "int256"
						}
					],
					"name": "add",
					"outputs": [
						{
							"internalType": "int256",
							"name": "",
							"type": "int256"
						}
					],
					"stateMutability": "nonpayable",
					"type": "function"
				},
				{
					"inputs": [
						{
							"internalType": "int256",
							"name": "a",
							"type": "int256"
						},
						{
							"internalType": "int256",
							"name": "b",
							"type": "int256"
						}
					],
					"name": "divide",
					"outputs": [
						{
							"internalType": "int256",
							"name": "",
							"type": "int256"
						}
					],
					"stateMutability": "nonpayable",
					"type": "function"
				},
				{
					"inputs": [
						{
							"internalType": "int256",
							"name": "a",
							"type": "int256"
						},
						{
							"internalType": "int256",
							"name": "b",
							"type": "int256"
						}
					],
					"name": "multiply",
					"outputs": [
						{
							"internalType": "int256",
							"name": "",
							"type": "int256"
						}
					],
					"stateMutability": "nonpayable",
					"type": "function"
				},
				{
					"inputs": [],
					"name": "readLastResult",
					"outputs": [
						{
							"internalType": "int256",
							"name": "",
							"type": "int256"
						}
					],
					"stateMutability": "view",
					"type": "function"
				},
				{
					"inputs": [
						{
							"internalType": "int256",
							"name": "a",
							"type": "int256"
						},
						{
							"internalType": "int256",
							"name": "b",
							"type": "int256"
						}
					],
					"name": "subtract",
					"outputs": [
						{
							"internalType": "int256",
							"name": "",
							"type": "int256"
						}
					],
					"stateMutability": "nonpayable",
					"type": "function"
				}
			],
			"devdoc": {
				"kind": "dev",
				"methods": {},
				"version": 1
			},
			"evm": {
				"assembly": "    /* \"Calculator.sol\":59:799  contract Calculator {... */\n  mstore(0x40, 0x80)\n  callvalue\n  dup1\n  iszero\n  tag_1\n  jumpi\n  0x00\n  dup1\n  revert\ntag_1:\n  pop\n  dataSize(sub_0)\n  dup1\n  dataOffset(sub_0)\n  0x00\n  codecopy\n  0x00\n  return\nstop\n\nsub_0: assembly {\n        /* \"Calculator.sol\":59:799  contract Calculator {... */\n      mstore(0x40, 0x80)\n      callvalue\n      dup1\n      iszero\n      tag_1\n      jumpi\n      0x00\n      dup1\n      revert\n    tag_1:\n      pop\n      jumpi(tag_2, lt(calldatasize, 0x04))\n      shr(0xe0, calldataload(0x00))\n      dup1\n      0x3c4308a8\n      eq\n      tag_3\n      jumpi\n      dup1\n      0xa5f3c23b\n      eq\n      tag_4\n      jumpi\n      dup1\n      0xb0b0ab89\n      eq\n      tag_5\n      jumpi\n      dup1\n      0xb93ea812\n      eq\n      tag_6\n      jumpi\n      dup1\n      0xf5984236\n      eq\n      tag_7\n      jumpi\n    tag_2:\n      0x00\n      dup1\n      revert\n        /* \"Calculator.sol\":565:695  function multiply (int256 a, int256 b) external returns (int256){... */\n    tag_3:\n      tag_8\n      0x04\n      dup1\n      calldatasize\n      sub\n      dup2\n      add\n      swap1\n      tag_9\n      swap2\n      swap1\n      tag_10\n      jump\t// in\n    tag_9:\n      tag_11\n      jump\t// in\n    tag_8:\n      mload(0x40)\n      tag_12\n      swap2\n      swap1\n      tag_13\n      jump\t// in\n    tag_12:\n      mload(0x40)\n      dup1\n      swap2\n      sub\n      swap1\n      return\n        /* \"Calculator.sol\":122:243  function add (int256 a, int256 b) external returns (int256){... */\n    tag_4:\n      tag_14\n      0x04\n      dup1\n      calldatasize\n      sub\n      dup2\n      add\n      swap1\n      tag_15\n      swap2\n      swap1\n      tag_10\n      jump\t// in\n    tag_15:\n      tag_16\n      jump\t// in\n    tag_14:\n      mload(0x40)\n      tag_17\n      swap2\n      swap1\n      tag_13\n      jump\t// in\n    tag_17:\n      mload(0x40)\n      dup1\n      swap2\n      sub\n      swap1\n      return\n        /* \"Calculator.sol\":701:794  function readLastResult() external view returns (int256){... */\n    tag_5:\n      tag_18\n      tag_19\n      jump\t// in\n    tag_18:\n      mload(0x40)\n      tag_20\n      swap2\n      swap1\n      tag_13\n      jump\t// in\n    tag_20:\n      mload(0x40)\n      dup1\n      swap2\n      sub\n      swap1\n      return\n        /* \"Calculator.sol\":250:376  function subtract (int256 a, int256 b) external returns (int256){... */\n    tag_6:\n      tag_21\n      0x04\n      dup1\n      calldatasize\n      sub\n      dup2\n      add\n      swap1\n      tag_22\n      swap2\n      swap1\n      tag_10\n      jump\t// in\n    tag_22:\n      tag_23\n      jump\t// in\n    tag_21:\n      mload(0x40)\n      tag_24\n      swap2\n      swap1\n      tag_13\n      jump\t// in\n    tag_24:\n      mload(0x40)\n      dup1\n      swap2\n      sub\n      swap1\n      return\n        /* \"Calculator.sol\":383:558  function divide (int256 a, int256 b) external returns (int256){... */\n    tag_7:\n      tag_25\n      0x04\n      dup1\n      calldatasize\n      sub\n      dup2\n      add\n      swap1\n      tag_26\n      swap2\n      swap1\n      tag_10\n      jump\t// in\n    tag_26:\n      tag_27\n      jump\t// in\n    tag_25:\n      mload(0x40)\n      tag_28\n      swap2\n      swap1\n      tag_13\n      jump\t// in\n    tag_28:\n      mload(0x40)\n      dup1\n      swap2\n      sub\n      swap1\n      return\n        /* \"Calculator.sol\":565:695  function multiply (int256 a, int256 b) external returns (int256){... */\n    tag_11:\n        /* \"Calculator.sol\":622:628  int256 */\n      0x00\n        /* \"Calculator.sol\":653:654  b */\n      dup2\n        /* \"Calculator.sol\":651:652  a */\n      dup4\n        /* \"Calculator.sol\":651:654  a*b */\n      tag_30\n      swap2\n      swap1\n      tag_31\n      jump\t// in\n    tag_30:\n        /* \"Calculator.sol\":639:649  lastResult */\n      0x00\n        /* \"Calculator.sol\":639:654  lastResult= a*b */\n      dup2\n      swap1\n      sstore\n      pop\n        /* \"Calculator.sol\":671:681  lastResult */\n      sload(0x00)\n        /* \"Calculator.sol\":664:681  return lastResult */\n      swap1\n      pop\n        /* \"Calculator.sol\":565:695  function multiply (int256 a, int256 b) external returns (int256){... */\n      swap3\n      swap2\n      pop\n      pop\n      jump\t// out\n        /* \"Calculator.sol\":122:243  function add (int256 a, int256 b) external returns (int256){... */\n    tag_16:\n        /* \"Calculator.sol\":174:180  int256 */\n      0x00\n        /* \"Calculator.sol\":207:208  b */\n      dup2\n        /* \"Calculator.sol\":205:206  a */\n      dup4\n        /* \"Calculator.sol\":205:208  a+b */\n      tag_33\n      swap2\n      swap1\n      tag_34\n      jump\t// in\n    tag_33:\n        /* \"Calculator.sol\":192:202  lastResult */\n      0x00\n        /* \"Calculator.sol\":192:208  lastResult = a+b */\n      dup2\n      swap1\n      sstore\n      pop\n        /* \"Calculator.sol\":225:235  lastResult */\n      sload(0x00)\n        /* \"Calculator.sol\":218:235  return lastResult */\n      swap1\n      pop\n        /* \"Calculator.sol\":122:243  function add (int256 a, int256 b) external returns (int256){... */\n      swap3\n      swap2\n      pop\n      pop\n      jump\t// out\n        /* \"Calculator.sol\":701:794  function readLastResult() external view returns (int256){... */\n    tag_19:\n        /* \"Calculator.sol\":750:756  int256 */\n      0x00\n        /* \"Calculator.sol\":775:785  lastResult */\n      dup1\n      sload\n        /* \"Calculator.sol\":768:785  return lastResult */\n      swap1\n      pop\n        /* \"Calculator.sol\":701:794  function readLastResult() external view returns (int256){... */\n      swap1\n      jump\t// out\n        /* \"Calculator.sol\":250:376  function subtract (int256 a, int256 b) external returns (int256){... */\n    tag_23:\n        /* \"Calculator.sol\":307:313  int256 */\n      0x00\n        /* \"Calculator.sol\":340:341  b */\n      dup2\n        /* \"Calculator.sol\":338:339  a */\n      dup4\n        /* \"Calculator.sol\":338:341  a-b */\n      tag_37\n      swap2\n      swap1\n      tag_38\n      jump\t// in\n    tag_37:\n        /* \"Calculator.sol\":325:335  lastResult */\n      0x00\n        /* \"Calculator.sol\":325:341  lastResult = a-b */\n      dup2\n      swap1\n      sstore\n      pop\n        /* \"Calculator.sol\":358:368  lastResult */\n      sload(0x00)\n        /* \"Calculator.sol\":351:368  return lastResult */\n      swap1\n      pop\n        /* \"Calculator.sol\":250:376  function subtract (int256 a, int256 b) external returns (int256){... */\n      swap3\n      swap2\n      pop\n      pop\n      jump\t// out\n        /* \"Calculator.sol\":383:558  function divide (int256 a, int256 b) external returns (int256){... */\n    tag_27:\n        /* \"Calculator.sol\":438:444  int256 */\n      0x00\n        /* \"Calculator.sol\":469:470  0 */\n      dup1\n        /* \"Calculator.sol\":464:465  b */\n      dup3\n        /* \"Calculator.sol\":464:470  b != 0 */\n      sub\n        /* \"Calculator.sol\":456:497  require(b != 0 , \"Cannot divide by zero\") */\n      tag_40\n      jumpi\n      mload(0x40)\n      0x08c379a000000000000000000000000000000000000000000000000000000000\n      dup2\n      mstore\n      0x04\n      add\n      tag_41\n      swap1\n      tag_42\n      jump\t// in\n    tag_41:\n      mload(0x40)\n      dup1\n      swap2\n      sub\n      swap1\n      revert\n    tag_40:\n        /* \"Calculator.sol\":522:523  b */\n      dup2\n        /* \"Calculator.sol\":520:521  a */\n      dup4\n        /* \"Calculator.sol\":520:523  a/b */\n      tag_43\n      swap2\n      swap1\n      tag_44\n      jump\t// in\n    tag_43:\n        /* \"Calculator.sol\":507:517  lastResult */\n      0x00\n        /* \"Calculator.sol\":507:523  lastResult = a/b */\n      dup2\n      swap1\n      sstore\n      pop\n        /* \"Calculator.sol\":540:550  lastResult */\n      sload(0x00)\n        /* \"Calculator.sol\":533:550  return lastResult */\n      swap1\n      pop\n        /* \"Calculator.sol\":383:558  function divide (int256 a, int256 b) external returns (int256){... */\n      swap3\n      swap2\n      pop\n      pop\n      jump\t// out\n        /* \"#utility.yul\":88:205   */\n    tag_46:\n        /* \"#utility.yul\":197:198   */\n      0x00\n        /* \"#utility.yul\":194:195   */\n      dup1\n        /* \"#utility.yul\":187:199   */\n      revert\n        /* \"#utility.yul\":334:410   */\n    tag_48:\n        /* \"#utility.yul\":370:377   */\n      0x00\n        /* \"#utility.yul\":399:404   */\n      dup2\n        /* \"#utility.yul\":388:404   */\n      swap1\n      pop\n        /* \"#utility.yul\":334:410   */\n      swap2\n      swap1\n      pop\n      jump\t// out\n        /* \"#utility.yul\":416:536   */\n    tag_49:\n        /* \"#utility.yul\":488:511   */\n      tag_63\n        /* \"#utility.yul\":505:510   */\n      dup2\n        /* \"#utility.yul\":488:511   */\n      tag_48\n      jump\t// in\n    tag_63:\n        /* \"#utility.yul\":481:486   */\n      dup2\n        /* \"#utility.yul\":478:512   */\n      eq\n        /* \"#utility.yul\":468:530   */\n      tag_64\n      jumpi\n        /* \"#utility.yul\":526:527   */\n      0x00\n        /* \"#utility.yul\":523:524   */\n      dup1\n        /* \"#utility.yul\":516:528   */\n      revert\n        /* \"#utility.yul\":468:530   */\n    tag_64:\n        /* \"#utility.yul\":416:536   */\n      pop\n      jump\t// out\n        /* \"#utility.yul\":542:679   */\n    tag_50:\n        /* \"#utility.yul\":587:592   */\n      0x00\n        /* \"#utility.yul\":625:631   */\n      dup2\n        /* \"#utility.yul\":612:632   */\n      calldataload\n        /* \"#utility.yul\":603:632   */\n      swap1\n      pop\n        /* \"#utility.yul\":641:673   */\n      tag_66\n        /* \"#utility.yul\":667:672   */\n      dup2\n        /* \"#utility.yul\":641:673   */\n      tag_49\n      jump\t// in\n    tag_66:\n        /* \"#utility.yul\":542:679   */\n      swap3\n      swap2\n      pop\n      pop\n      jump\t// out\n        /* \"#utility.yul\":685:1155   */\n    tag_10:\n        /* \"#utility.yul\":751:757   */\n      0x00\n        /* \"#utility.yul\":759:765   */\n      dup1\n        /* \"#utility.yul\":808:810   */\n      0x40\n        /* \"#utility.yul\":796:805   */\n      dup4\n        /* \"#utility.yul\":787:794   */\n      dup6\n        /* \"#utility.yul\":783:806   */\n      sub\n        /* \"#utility.yul\":779:811   */\n      slt\n        /* \"#utility.yul\":776:895   */\n      iszero\n      tag_68\n      jumpi\n        /* \"#utility.yul\":814:893   */\n      tag_69\n      tag_46\n      jump\t// in\n    tag_69:\n        /* \"#utility.yul\":776:895   */\n    tag_68:\n        /* \"#utility.yul\":934:935   */\n      0x00\n        /* \"#utility.yul\":959:1011   */\n      tag_70\n        /* \"#utility.yul\":1003:1010   */\n      dup6\n        /* \"#utility.yul\":994:1000   */\n      dup3\n        /* \"#utility.yul\":983:992   */\n      dup7\n        /* \"#utility.yul\":979:1001   */\n      add\n        /* \"#utility.yul\":959:1011   */\n      tag_50\n      jump\t// in\n    tag_70:\n        /* \"#utility.yul\":949:1011   */\n      swap3\n      pop\n        /* \"#utility.yul\":905:1021   */\n      pop\n        /* \"#utility.yul\":1060:1062   */\n      0x20\n        /* \"#utility.yul\":1086:1138   */\n      tag_71\n        /* \"#utility.yul\":1130:1137   */\n      dup6\n        /* \"#utility.yul\":1121:1127   */\n      dup3\n        /* \"#utility.yul\":1110:1119   */\n      dup7\n        /* \"#utility.yul\":1106:1128   */\n      add\n        /* \"#utility.yul\":1086:1138   */\n      tag_50\n      jump\t// in\n    tag_71:\n        /* \"#utility.yul\":1076:1138   */\n      swap2\n      pop\n        /* \"#utility.yul\":1031:1148   */\n      pop\n        /* \"#utility.yul\":685:1155   */\n      swap3\n      pop\n      swap3\n      swap1\n      pop\n      jump\t// out\n        /* \"#utility.yul\":1161:1276   */\n    tag_51:\n        /* \"#utility.yul\":1246:1269   */\n      tag_73\n        /* \"#utility.yul\":1263:1268   */\n      dup2\n        /* \"#utility.yul\":1246:1269   */\n      tag_48\n      jump\t// in\n    tag_73:\n        /* \"#utility.yul\":1241:1244   */\n      dup3\n        /* \"#utility.yul\":1234:1270   */\n      mstore\n        /* \"#utility.yul\":1161:1276   */\n      pop\n      pop\n      jump\t// out\n        /* \"#utility.yul\":1282:1500   */\n    tag_13:\n        /* \"#utility.yul\":1373:1377   */\n      0x00\n        /* \"#utility.yul\":1411:1413   */\n      0x20\n        /* \"#utility.yul\":1400:1409   */\n      dup3\n        /* \"#utility.yul\":1396:1414   */\n      add\n        /* \"#utility.yul\":1388:1414   */\n      swap1\n      pop\n        /* \"#utility.yul\":1424:1493   */\n      tag_75\n        /* \"#utility.yul\":1490:1491   */\n      0x00\n        /* \"#utility.yul\":1479:1488   */\n      dup4\n        /* \"#utility.yul\":1475:1492   */\n      add\n        /* \"#utility.yul\":1466:1472   */\n      dup5\n        /* \"#utility.yul\":1424:1493   */\n      tag_51\n      jump\t// in\n    tag_75:\n        /* \"#utility.yul\":1282:1500   */\n      swap3\n      swap2\n      pop\n      pop\n      jump\t// out\n        /* \"#utility.yul\":1506:1686   */\n    tag_52:\n        /* \"#utility.yul\":1554:1631   */\n      0x4e487b7100000000000000000000000000000000000000000000000000000000\n        /* \"#utility.yul\":1551:1552   */\n      0x00\n        /* \"#utility.yul\":1544:1632   */\n      mstore\n        /* \"#utility.yul\":1651:1655   */\n      0x11\n        /* \"#utility.yul\":1648:1649   */\n      0x04\n        /* \"#utility.yul\":1641:1656   */\n      mstore\n        /* \"#utility.yul\":1675:1679   */\n      0x24\n        /* \"#utility.yul\":1672:1673   */\n      0x00\n        /* \"#utility.yul\":1665:1680   */\n      revert\n        /* \"#utility.yul\":1692:2248   */\n    tag_31:\n        /* \"#utility.yul\":1731:1738   */\n      0x00\n        /* \"#utility.yul\":1754:1773   */\n      tag_78\n        /* \"#utility.yul\":1771:1772   */\n      dup3\n        /* \"#utility.yul\":1754:1773   */\n      tag_48\n      jump\t// in\n    tag_78:\n        /* \"#utility.yul\":1749:1773   */\n      swap2\n      pop\n        /* \"#utility.yul\":1787:1806   */\n      tag_79\n        /* \"#utility.yul\":1804:1805   */\n      dup4\n        /* \"#utility.yul\":1787:1806   */\n      tag_48\n      jump\t// in\n    tag_79:\n        /* \"#utility.yul\":1782:1806   */\n      swap3\n      pop\n        /* \"#utility.yul\":1841:1842   */\n      dup3\n        /* \"#utility.yul\":1838:1839   */\n      dup3\n        /* \"#utility.yul\":1834:1843   */\n      mul\n        /* \"#utility.yul\":1863:1892   */\n      tag_80\n        /* \"#utility.yul\":1880:1891   */\n      dup2\n        /* \"#utility.yul\":1863:1892   */\n      tag_48\n      jump\t// in\n    tag_80:\n        /* \"#utility.yul\":1852:1892   */\n      swap2\n      pop\n        /* \"#utility.yul\":1950:2016   */\n      0x8000000000000000000000000000000000000000000000000000000000000000\n        /* \"#utility.yul\":1947:1948   */\n      dup5\n        /* \"#utility.yul\":1944:2017   */\n      eq\n        /* \"#utility.yul\":1940:1941   */\n      0x00\n        /* \"#utility.yul\":1937:1938   */\n      dup5\n        /* \"#utility.yul\":1933:1942   */\n      slt\n        /* \"#utility.yul\":1929:2018   */\n      and\n        /* \"#utility.yul\":1926:2041   */\n      iszero\n      tag_81\n      jumpi\n        /* \"#utility.yul\":2021:2039   */\n      tag_82\n      tag_52\n      jump\t// in\n    tag_82:\n        /* \"#utility.yul\":1926:2041   */\n    tag_81:\n        /* \"#utility.yul\":2191:2192   */\n      dup3\n        /* \"#utility.yul\":2182:2189   */\n      dup3\n        /* \"#utility.yul\":2177:2193   */\n      sdiv\n        /* \"#utility.yul\":2174:2175   */\n      dup5\n        /* \"#utility.yul\":2171:2194   */\n      eq\n        /* \"#utility.yul\":2151:2152   */\n      dup4\n        /* \"#utility.yul\":2144:2153   */\n      iszero\n        /* \"#utility.yul\":2124:2208   */\n      or\n        /* \"#utility.yul\":2101:2241   */\n      tag_83\n      jumpi\n        /* \"#utility.yul\":2221:2239   */\n      tag_84\n      tag_52\n      jump\t// in\n    tag_84:\n        /* \"#utility.yul\":2101:2241   */\n    tag_83:\n        /* \"#utility.yul\":1739:2248   */\n      pop\n        /* \"#utility.yul\":1692:2248   */\n      swap3\n      swap2\n      pop\n      pop\n      jump\t// out\n        /* \"#utility.yul\":2254:2629   */\n    tag_34:\n        /* \"#utility.yul\":2293:2296   */\n      0x00\n        /* \"#utility.yul\":2312:2331   */\n      tag_86\n        /* \"#utility.yul\":2329:2330   */\n      dup3\n        /* \"#utility.yul\":2312:2331   */\n      tag_48\n      jump\t// in\n    tag_86:\n        /* \"#utility.yul\":2307:2331   */\n      swap2\n      pop\n        /* \"#utility.yul\":2345:2364   */\n      tag_87\n        /* \"#utility.yul\":2362:2363   */\n      dup4\n        /* \"#utility.yul\":2345:2364   */\n      tag_48\n      jump\t// in\n    tag_87:\n        /* \"#utility.yul\":2340:2364   */\n      swap3\n      pop\n        /* \"#utility.yul\":2387:2388   */\n      dup3\n        /* \"#utility.yul\":2384:2385   */\n      dup3\n        /* \"#utility.yul\":2380:2389   */\n      add\n        /* \"#utility.yul\":2373:2389   */\n      swap1\n      pop\n        /* \"#utility.yul\":2585:2586   */\n      dup3\n        /* \"#utility.yul\":2580:2583   */\n      dup2\n        /* \"#utility.yul\":2576:2587   */\n      slt\n        /* \"#utility.yul\":2569:2588   */\n      iszero\n        /* \"#utility.yul\":2565:2566   */\n      0x00\n        /* \"#utility.yul\":2562:2563   */\n      dup4\n        /* \"#utility.yul\":2558:2567   */\n      slt\n        /* \"#utility.yul\":2554:2589   */\n      and\n        /* \"#utility.yul\":2537:2538   */\n      dup4\n        /* \"#utility.yul\":2532:2535   */\n      dup3\n        /* \"#utility.yul\":2528:2539   */\n      slt\n        /* \"#utility.yul\":2523:2524   */\n      0x00\n        /* \"#utility.yul\":2520:2521   */\n      dup5\n        /* \"#utility.yul\":2516:2525   */\n      slt\n        /* \"#utility.yul\":2509:2526   */\n      iszero\n        /* \"#utility.yul\":2505:2540   */\n      and\n        /* \"#utility.yul\":2489:2599   */\n      or\n        /* \"#utility.yul\":2486:2622   */\n      iszero\n      tag_88\n      jumpi\n        /* \"#utility.yul\":2602:2620   */\n      tag_89\n      tag_52\n      jump\t// in\n    tag_89:\n        /* \"#utility.yul\":2486:2622   */\n    tag_88:\n        /* \"#utility.yul\":2254:2629   */\n      swap3\n      swap2\n      pop\n      pop\n      jump\t// out\n        /* \"#utility.yul\":2635:3007   */\n    tag_38:\n        /* \"#utility.yul\":2674:2678   */\n      0x00\n        /* \"#utility.yul\":2694:2713   */\n      tag_91\n        /* \"#utility.yul\":2711:2712   */\n      dup3\n        /* \"#utility.yul\":2694:2713   */\n      tag_48\n      jump\t// in\n    tag_91:\n        /* \"#utility.yul\":2689:2713   */\n      swap2\n      pop\n        /* \"#utility.yul\":2727:2746   */\n      tag_92\n        /* \"#utility.yul\":2744:2745   */\n      dup4\n        /* \"#utility.yul\":2727:2746   */\n      tag_48\n      jump\t// in\n    tag_92:\n        /* \"#utility.yul\":2722:2746   */\n      swap3\n      pop\n        /* \"#utility.yul\":2770:2771   */\n      dup3\n        /* \"#utility.yul\":2767:2768   */\n      dup3\n        /* \"#utility.yul\":2763:2772   */\n      sub\n        /* \"#utility.yul\":2755:2772   */\n      swap1\n      pop\n        /* \"#utility.yul\":2964:2965   */\n      dup2\n        /* \"#utility.yul\":2958:2962   */\n      dup2\n        /* \"#utility.yul\":2954:2966   */\n      slt\n        /* \"#utility.yul\":2950:2951   */\n      0x00\n        /* \"#utility.yul\":2947:2948   */\n      dup5\n        /* \"#utility.yul\":2943:2952   */\n      slt\n        /* \"#utility.yul\":2939:2967   */\n      and\n        /* \"#utility.yul\":2922:2923   */\n      dup3\n        /* \"#utility.yul\":2916:2920   */\n      dup3\n        /* \"#utility.yul\":2912:2924   */\n      sgt\n        /* \"#utility.yul\":2907:2908   */\n      0x00\n        /* \"#utility.yul\":2904:2905   */\n      dup6\n        /* \"#utility.yul\":2900:2909   */\n      slt\n        /* \"#utility.yul\":2893:2910   */\n      iszero\n        /* \"#utility.yul\":2889:2925   */\n      and\n        /* \"#utility.yul\":2873:2977   */\n      or\n        /* \"#utility.yul\":2870:3000   */\n      iszero\n      tag_93\n      jumpi\n        /* \"#utility.yul\":2980:2998   */\n      tag_94\n      tag_52\n      jump\t// in\n    tag_94:\n        /* \"#utility.yul\":2870:3000   */\n    tag_93:\n        /* \"#utility.yul\":2635:3007   */\n      swap3\n      swap2\n      pop\n      pop\n      jump\t// out\n        /* \"#utility.yul\":3013:3182   */\n    tag_53:\n        /* \"#utility.yul\":3097:3108   */\n      0x00\n        /* \"#utility.yul\":3131:3137   */\n      dup3\n        /* \"#utility.yul\":3126:3129   */\n      dup3\n        /* \"#utility.yul\":3119:3138   */\n      mstore\n        /* \"#utility.yul\":3171:3175   */\n      0x20\n        /* \"#utility.yul\":3166:3169   */\n      dup3\n        /* \"#utility.yul\":3162:3176   */\n      add\n        /* \"#utility.yul\":3147:3176   */\n      swap1\n      pop\n        /* \"#utility.yul\":3013:3182   */\n      swap3\n      swap2\n      pop\n      pop\n      jump\t// out\n        /* \"#utility.yul\":3188:3359   */\n    tag_54:\n        /* \"#utility.yul\":3328:3351   */\n      0x43616e6e6f7420646976696465206279207a65726f0000000000000000000000\n        /* \"#utility.yul\":3324:3325   */\n      0x00\n        /* \"#utility.yul\":3316:3322   */\n      dup3\n        /* \"#utility.yul\":3312:3326   */\n      add\n        /* \"#utility.yul\":3305:3352   */\n      mstore\n        /* \"#utility.yul\":3188:3359   */\n      pop\n      jump\t// out\n        /* \"#utility.yul\":3365:3731   */\n    tag_55:\n        /* \"#utility.yul\":3507:3510   */\n      0x00\n        /* \"#utility.yul\":3528:3595   */\n      tag_98\n        /* \"#utility.yul\":3592:3594   */\n      0x15\n        /* \"#utility.yul\":3587:3590   */\n      dup4\n        /* \"#utility.yul\":3528:3595   */\n      tag_53\n      jump\t// in\n    tag_98:\n        /* \"#utility.yul\":3521:3595   */\n      swap2\n      pop\n        /* \"#utility.yul\":3604:3697   */\n      tag_99\n        /* \"#utility.yul\":3693:3696   */\n      dup3\n        /* \"#utility.yul\":3604:3697   */\n      tag_54\n      jump\t// in\n    tag_99:\n        /* \"#utility.yul\":3722:3724   */\n      0x20\n        /* \"#utility.yul\":3717:3720   */\n      dup3\n        /* \"#utility.yul\":3713:3725   */\n      add\n        /* \"#utility.yul\":3706:3725   */\n      swap1\n      pop\n        /* \"#utility.yul\":3365:3731   */\n      swap2\n      swap1\n      pop\n      jump\t// out\n        /* \"#utility.yul\":3737:4156   */\n    tag_42:\n        /* \"#utility.yul\":3903:3907   */\n      0x00\n        /* \"#utility.yul\":3941:3943   */\n      0x20\n        /* \"#utility.yul\":3930:3939   */\n      dup3\n        /* \"#utility.yul\":3926:3944   */\n      add\n        /* \"#utility.yul\":3918:3944   */\n      swap1\n      pop\n        /* \"#utility.yul\":3990:3999   */\n      dup2\n        /* \"#utility.yul\":3984:3988   */\n      dup2\n        /* \"#utility.yul\":3980:4000   */\n      sub\n        /* \"#utility.yul\":3976:3977   */\n      0x00\n        /* \"#utility.yul\":3965:3974   */\n      dup4\n        /* \"#utility.yul\":3961:3978   */\n      add\n        /* \"#utility.yul\":3954:4001   */\n      mstore\n        /* \"#utility.yul\":4018:4149   */\n      tag_101\n        /* \"#utility.yul\":4144:4148   */\n      dup2\n        /* \"#utility.yul\":4018:4149   */\n      tag_55\n      jump\t// in\n    tag_101:\n        /* \"#utility.yul\":4010:4149   */\n      swap1\n      pop\n        /* \"#utility.yul\":3737:4156   */\n      swap2\n      swap1\n      pop\n      jump\t// out\n        /* \"#utility.yul\":4162:4342   */\n    tag_56:\n        /* \"#utility.yul\":4210:4287   */\n      0x4e487b7100000000000000000000000000000000000000000000000000000000\n        /* \"#utility.yul\":4207:4208   */\n      0x00\n        /* \"#utility.yul\":4200:4288   */\n      mstore\n        /* \"#utility.yul\":4307:4311   */\n      0x12\n        /* \"#utility.yul\":4304:4305   */\n      0x04\n        /* \"#utility.yul\":4297:4312   */\n      mstore\n        /* \"#utility.yul\":4331:4335   */\n      0x24\n        /* \"#utility.yul\":4328:4329   */\n      0x00\n        /* \"#utility.yul\":4321:4336   */\n      revert\n        /* \"#utility.yul\":4348:4733   */\n    tag_44:\n        /* \"#utility.yul\":4387:4388   */\n      0x00\n        /* \"#utility.yul\":4404:4423   */\n      tag_104\n        /* \"#utility.yul\":4421:4422   */\n      dup3\n        /* \"#utility.yul\":4404:4423   */\n      tag_48\n      jump\t// in\n    tag_104:\n        /* \"#utility.yul\":4399:4423   */\n      swap2\n      pop\n        /* \"#utility.yul\":4437:4456   */\n      tag_105\n        /* \"#utility.yul\":4454:4455   */\n      dup4\n        /* \"#utility.yul\":4437:4456   */\n      tag_48\n      jump\t// in\n    tag_105:\n        /* \"#utility.yul\":4432:4456   */\n      swap3\n      pop\n        /* \"#utility.yul\":4475:4476   */\n      dup3\n        /* \"#utility.yul\":4465:4500   */\n      tag_106\n      jumpi\n        /* \"#utility.yul\":4480:4498   */\n      tag_107\n      tag_56\n      jump\t// in\n    tag_107:\n        /* \"#utility.yul\":4465:4500   */\n    tag_106:\n        /* \"#utility.yul\":4666:4667   */\n      0x01\n        /* \"#utility.yul\":4663:4664   */\n      0x00\n        /* \"#utility.yul\":4659:4668   */\n      sub\n        /* \"#utility.yul\":4656:4657   */\n      dup4\n        /* \"#utility.yul\":4653:4669   */\n      eq\n        /* \"#utility.yul\":4572:4638   */\n      0x8000000000000000000000000000000000000000000000000000000000000000\n        /* \"#utility.yul\":4569:4570   */\n      dup4\n        /* \"#utility.yul\":4566:4639   */\n      eq\n        /* \"#utility.yul\":4549:4679   */\n      and\n        /* \"#utility.yul\":4546:4702   */\n      iszero\n      tag_108\n      jumpi\n        /* \"#utility.yul\":4682:4700   */\n      tag_109\n      tag_52\n      jump\t// in\n    tag_109:\n        /* \"#utility.yul\":4546:4702   */\n    tag_108:\n        /* \"#utility.yul\":4725:4726   */\n      dup3\n        /* \"#utility.yul\":4722:4723   */\n      dup3\n        /* \"#utility.yul\":4717:4727   */\n      sdiv\n        /* \"#utility.yul\":4712:4727   */\n      swap1\n      pop\n        /* \"#utility.yul\":4348:4733   */\n      swap3\n      swap2\n      pop\n      pop\n      jump\t// out\n\n    auxdata: 0xa26469706673582212201d3e27387bf7b7cd3a0d012a11092a91cdd773b158d8c35cc5c1d27b5ddec5ef64736f6c63430008140033\n}\n",
				"bytecode": {
					"linkReferences": {},
					"object": "608060405234801561000f575f80fd5b506104f58061001d5f395ff3fe608060405234801561000f575f80fd5b5060043610610055575f3560e01c80633c4308a814610059578063a5f3c23b14610089578063b0b0ab89146100b9578063b93ea812146100d7578063f598423614610107575b5f80fd5b610073600480360381019061006e9190610228565b610137565b6040516100809190610275565b60405180910390f35b6100a3600480360381019061009e9190610228565b610153565b6040516100b09190610275565b60405180910390f35b6100c161016f565b6040516100ce9190610275565b60405180910390f35b6100f160048036038101906100ec9190610228565b610177565b6040516100fe9190610275565b60405180910390f35b610121600480360381019061011c9190610228565b610193565b60405161012e9190610275565b60405180910390f35b5f818361014491906102bb565b5f819055505f54905092915050565b5f81836101609190610331565b5f819055505f54905092915050565b5f8054905090565b5f81836101849190610372565b5f819055505f54905092915050565b5f8082036101d6576040517f08c379a00000000000000000000000000000000000000000000000000000000081526004016101cd9061040c565b60405180910390fd5b81836101e29190610457565b5f819055505f54905092915050565b5f80fd5b5f819050919050565b610207816101f5565b8114610211575f80fd5b50565b5f81359050610222816101fe565b92915050565b5f806040838503121561023e5761023d6101f1565b5b5f61024b85828601610214565b925050602061025c85828601610214565b9150509250929050565b61026f816101f5565b82525050565b5f6020820190506102885f830184610266565b92915050565b7f4e487b71000000000000000000000000000000000000000000000000000000005f52601160045260245ffd5b5f6102c5826101f5565b91506102d0836101f5565b92508282026102de816101f5565b91507f800000000000000000000000000000000000000000000000000000000000000084145f841216156103155761031461028e565b5b828205841483151761032a5761032961028e565b5b5092915050565b5f61033b826101f5565b9150610346836101f5565b92508282019050828112155f8312168382125f84121516171561036c5761036b61028e565b5b92915050565b5f61037c826101f5565b9150610387836101f5565b925082820390508181125f8412168282135f8512151617156103ac576103ab61028e565b5b92915050565b5f82825260208201905092915050565b7f43616e6e6f7420646976696465206279207a65726f00000000000000000000005f82015250565b5f6103f66015836103b2565b9150610401826103c2565b602082019050919050565b5f6020820190508181035f830152610423816103ea565b9050919050565b7f4e487b71000000000000000000000000000000000000000000000000000000005f52601260045260245ffd5b5f610461826101f5565b915061046c836101f5565b92508261047c5761047b61042a565b5b60015f0383147f8000000000000000000000000000000000000000000000000000000000000000831416156104b4576104b361028e565b5b82820590509291505056fea26469706673582212201d3e27387bf7b7cd3a0d012a11092a91cdd773b158d8c35cc5c1d27b5ddec5ef64736f6c63430008140033",
					"opcodes": "PUSH1 0x80 PUSH1 0x40 MSTORE CALLVALUE DUP1 ISZERO PUSH2 0xF JUMPI PUSH0 DUP1 REVERT JUMPDEST POP PUSH2 0x4F5 DUP1 PUSH2 0x1D PUSH0 CODECOPY PUSH0 RETURN INVALID PUSH1 0x80 PUSH1 0x40 MSTORE CALLVALUE DUP1 ISZERO PUSH2 0xF JUMPI PUSH0 DUP1 REVERT JUMPDEST POP PUSH1 0x4 CALLDATASIZE LT PUSH2 0x55 JUMPI PUSH0 CALLDATALOAD PUSH1 0xE0 SHR DUP1 PUSH4 0x3C4308A8 EQ PUSH2 0x59 JUMPI DUP1 PUSH4 0xA5F3C23B EQ PUSH2 0x89 JUMPI DUP1 PUSH4 0xB0B0AB89 EQ PUSH2 0xB9 JUMPI DUP1 PUSH4 0xB93EA812 EQ PUSH2 0xD7 JUMPI DUP1 PUSH4 0xF5984236 EQ PUSH2 0x107 JUMPI JUMPDEST PUSH0 DUP1 REVERT JUMPDEST PUSH2 0x73 PUSH1 0x4 DUP1 CALLDATASIZE SUB DUP2 ADD SWAP1 PUSH2 0x6E SWAP2 SWAP1 PUSH2 0x228 JUMP JUMPDEST PUSH2 0x137 JUMP JUMPDEST PUSH1 0x40 MLOAD PUSH2 0x80 SWAP2 SWAP1 PUSH2 0x275 JUMP JUMPDEST PUSH1 0x40 MLOAD DUP1 SWAP2 SUB SWAP1 RETURN JUMPDEST PUSH2 0xA3 PUSH1 0x4 DUP1 CALLDATASIZE SUB DUP2 ADD SWAP1 PUSH2 0x9E SWAP2 SWAP1 PUSH2 0x228 JUMP JUMPDEST PUSH2 0x153 JUMP JUMPDEST PUSH1 0x40 MLOAD PUSH2 0xB0 SWAP2 SWAP1 PUSH2 0x275 JUMP JUMPDEST PUSH1 0x40 MLOAD DUP1 SWAP2 SUB SWAP1 RETURN JUMPDEST PUSH2 0xC1 PUSH2 0x16F JUMP JUMPDEST PUSH1 0x40 MLOAD PUSH2 0xCE SWAP2 SWAP1 PUSH2 0x275 JUMP JUMPDEST PUSH1 0x40 MLOAD DUP1 SWAP2 SUB SWAP1 RETURN JUMPDEST PUSH2 0xF1 PUSH1 0x4 DUP1 CALLDATASIZE SUB DUP2 ADD SWAP1 PUSH2 0xEC SWAP2 SWAP1 PUSH2 0x228 JUMP JUMPDEST PUSH2 0x177 JUMP JUMPDEST PUSH1 0x40 MLOAD PUSH2 0xFE SWAP2 SWAP1 PUSH2 0x275 JUMP JUMPDEST PUSH1 0x40 MLOAD DUP1 SWAP2 SUB SWAP1 RETURN JUMPDEST PUSH2 0x121 PUSH1 0x4 DUP1 CALLDATASIZE SUB DUP2 ADD SWAP1 PUSH2 0x11C SWAP2 SWAP1 PUSH2 0x228 JUMP JUMPDEST PUSH2 0x193 JUMP JUMPDEST PUSH1 0x40 MLOAD PUSH2 0x12E SWAP2 SWAP1 PUSH2 0x275 JUMP JUMPDEST PUSH1 0x40 MLOAD DUP1 SWAP2 SUB SWAP1 RETURN JUMPDEST PUSH0 DUP2 DUP4 PUSH2 0x144 SWAP2 SWAP1 PUSH2 0x2BB JUMP JUMPDEST PUSH0 DUP2 SWAP1 SSTORE POP PUSH0 SLOAD SWAP1 POP SWAP3 SWAP2 POP POP JUMP JUMPDEST PUSH0 DUP2 DUP4 PUSH2 0x160 SWAP2 SWAP1 PUSH2 0x331 JUMP JUMPDEST PUSH0 DUP2 SWAP1 SSTORE POP PUSH0 SLOAD SWAP1 POP SWAP3 SWAP2 POP POP JUMP JUMPDEST PUSH0 DUP1 SLOAD SWAP1 POP SWAP1 JUMP JUMPDEST PUSH0 DUP2 DUP4 PUSH2 0x184 SWAP2 SWAP1 PUSH2 0x372 JUMP JUMPDEST PUSH0 DUP2 SWAP1 SSTORE POP PUSH0 SLOAD SWAP1 POP SWAP3 SWAP2 POP POP JUMP JUMPDEST PUSH0 DUP1 DUP3 SUB PUSH2 0x1D6 JUMPI PUSH1 0x40 MLOAD PUSH32 0x8C379A000000000000000000000000000000000000000000000000000000000 DUP2 MSTORE PUSH1 0x4 ADD PUSH2 0x1CD SWAP1 PUSH2 0x40C JUMP JUMPDEST PUSH1 0x40 MLOAD DUP1 SWAP2 SUB SWAP1 REVERT JUMPDEST DUP2 DUP4 PUSH2 0x1E2 SWAP2 SWAP1 PUSH2 0x457 JUMP JUMPDEST PUSH0 DUP2 SWAP1 SSTORE POP PUSH0 SLOAD SWAP1 POP SWAP3 SWAP2 POP POP JUMP JUMPDEST PUSH0 DUP1 REVERT JUMPDEST PUSH0 DUP2 SWAP1 POP SWAP2 SWAP1 POP JUMP JUMPDEST PUSH2 0x207 DUP2 PUSH2 0x1F5 JUMP JUMPDEST DUP2 EQ PUSH2 0x211 JUMPI PUSH0 DUP1 REVERT JUMPDEST POP JUMP JUMPDEST PUSH0 DUP2 CALLDATALOAD SWAP1 POP PUSH2 0x222 DUP2 PUSH2 0x1FE JUMP JUMPDEST SWAP3 SWAP2 POP POP JUMP JUMPDEST PUSH0 DUP1 PUSH1 0x40 DUP4 DUP6 SUB SLT ISZERO PUSH2 0x23E JUMPI PUSH2 0x23D PUSH2 0x1F1 JUMP JUMPDEST JUMPDEST PUSH0 PUSH2 0x24B DUP6 DUP3 DUP7 ADD PUSH2 0x214 JUMP JUMPDEST SWAP3 POP POP PUSH1 0x20 PUSH2 0x25C DUP6 DUP3 DUP7 ADD PUSH2 0x214 JUMP JUMPDEST SWAP2 POP POP SWAP3 POP SWAP3 SWAP1 POP JUMP JUMPDEST PUSH2 0x26F DUP2 PUSH2 0x1F5 JUMP JUMPDEST DUP3 MSTORE POP POP JUMP JUMPDEST PUSH0 PUSH1 0x20 DUP3 ADD SWAP1 POP PUSH2 0x288 PUSH0 DUP4 ADD DUP5 PUSH2 0x266 JUMP JUMPDEST SWAP3 SWAP2 POP POP JUMP JUMPDEST PUSH32 0x4E487B7100000000000000000000000000000000000000000000000000000000 PUSH0 MSTORE PUSH1 0x11 PUSH1 0x4 MSTORE PUSH1 0x24 PUSH0 REVERT JUMPDEST PUSH0 PUSH2 0x2C5 DUP3 PUSH2 0x1F5 JUMP JUMPDEST SWAP2 POP PUSH2 0x2D0 DUP4 PUSH2 0x1F5 JUMP JUMPDEST SWAP3 POP DUP3 DUP3 MUL PUSH2 0x2DE DUP2 PUSH2 0x1F5 JUMP JUMPDEST SWAP2 POP PUSH32 0x8000000000000000000000000000000000000000000000000000000000000000 DUP5 EQ PUSH0 DUP5 SLT AND ISZERO PUSH2 0x315 JUMPI PUSH2 0x314 PUSH2 0x28E JUMP JUMPDEST JUMPDEST DUP3 DUP3 SDIV DUP5 EQ DUP4 ISZERO OR PUSH2 0x32A JUMPI PUSH2 0x329 PUSH2 0x28E JUMP JUMPDEST JUMPDEST POP SWAP3 SWAP2 POP POP JUMP JUMPDEST PUSH0 PUSH2 0x33B DUP3 PUSH2 0x1F5 JUMP JUMPDEST SWAP2 POP PUSH2 0x346 DUP4 PUSH2 0x1F5 JUMP JUMPDEST SWAP3 POP DUP3 DUP3 ADD SWAP1 POP DUP3 DUP2 SLT ISZERO PUSH0 DUP4 SLT AND DUP4 DUP3 SLT PUSH0 DUP5 SLT ISZERO AND OR ISZERO PUSH2 0x36C JUMPI PUSH2 0x36B PUSH2 0x28E JUMP JUMPDEST JUMPDEST SWAP3 SWAP2 POP POP JUMP JUMPDEST PUSH0 PUSH2 0x37C DUP3 PUSH2 0x1F5 JUMP JUMPDEST SWAP2 POP PUSH2 0x387 DUP4 PUSH2 0x1F5 JUMP JUMPDEST SWAP3 POP DUP3 DUP3 SUB SWAP1 POP DUP2 DUP2 SLT PUSH0 DUP5 SLT AND DUP3 DUP3 SGT PUSH0 DUP6 SLT ISZERO AND OR ISZERO PUSH2 0x3AC JUMPI PUSH2 0x3AB PUSH2 0x28E JUMP JUMPDEST JUMPDEST SWAP3 SWAP2 POP POP JUMP JUMPDEST PUSH0 DUP3 DUP3 MSTORE PUSH1 0x20 DUP3 ADD SWAP1 POP SWAP3 SWAP2 POP POP JUMP JUMPDEST PUSH32 0x43616E6E6F7420646976696465206279207A65726F0000000000000000000000 PUSH0 DUP3 ADD MSTORE POP JUMP JUMPDEST PUSH0 PUSH2 0x3F6 PUSH1 0x15 DUP4 PUSH2 0x3B2 JUMP JUMPDEST SWAP2 POP PUSH2 0x401 DUP3 PUSH2 0x3C2 JUMP JUMPDEST PUSH1 0x20 DUP3 ADD SWAP1 POP SWAP2 SWAP1 POP JUMP JUMPDEST PUSH0 PUSH1 0x20 DUP3 ADD SWAP1 POP DUP2 DUP2 SUB PUSH0 DUP4 ADD MSTORE PUSH2 0x423 DUP2 PUSH2 0x3EA JUMP JUMPDEST SWAP1 POP SWAP2 SWAP1 POP JUMP JUMPDEST PUSH32 0x4E487B7100000000000000000000000000000000000000000000000000000000 PUSH0 MSTORE PUSH1 0x12 PUSH1 0x4 MSTORE PUSH1 0x24 PUSH0 REVERT JUMPDEST PUSH0 PUSH2 0x461 DUP3 PUSH2 0x1F5 JUMP JUMPDEST SWAP2 POP PUSH2 0x46C DUP4 PUSH2 0x1F5 JUMP JUMPDEST SWAP3 POP DUP3 PUSH2 0x47C JUMPI PUSH2 0x47B PUSH2 0x42A JUMP JUMPDEST JUMPDEST PUSH1 0x1 PUSH0 SUB DUP4 EQ PUSH32 0x8000000000000000000000000000000000000000000000000000000000000000 DUP4 EQ AND ISZERO PUSH2 0x4B4 JUMPI PUSH2 0x4B3 PUSH2 0x28E JUMP JUMPDEST JUMPDEST DUP3 DUP3 SDIV SWAP1 POP SWAP3 SWAP2 POP POP JUMP INVALID LOG2 PUSH5 0x6970667358 0x22 SLT KECCAK256 SAR RETURNDATACOPY 0x27 CODESIZE PUSH28 0xF7B7CD3A0D012A11092A91CDD773B158D8C35CC5C1D27B5DDEC5EF64 PUSH20 0x6F6C634300081400330000000000000000000000 "
				},
				"gasEstimates": {
					"creation": {
						"codeDepositCost": "253800",
						"executionCost": "292",
						"totalCost": "254092"
					},
					"external": {
						"add(int256,int256)": "infinite",
						"divide(int256,int256)": "infinite",
						"multiply(int256,int256)": "infinite",
						"readLastResult()": "2454",
						"subtract(int256,int256)": "infinite"
					}
				},
				"methodIdentifiers": {
					"add(int256,int256)": "a5f3c23b",
					"divide(int256,int256)": "f5984236",
					"multiply(int256,int256)": "3c4308a8",
					"readLastResult()": "b0b0ab89",
					"subtract(int256,int256)": "b93ea812"
				}
			},
			"storageLayout": {
				"storage": [
					{
						"astId": 3,
						"contract": "Calculator.sol:Calculator",
						"label": "lastResult",
						"offset": 0,
						"slot": "0",
						"type": "t_int256"
					}
				],
				"types": {
					"t_int256": {
						"encoding": "inplace",
						"label": "int256",
						"numberOfBytes": "32"
					}
				}
			},
			"userdoc": {
				"kind": "user",
				"methods": {},
				"version": 1
			}
		}
	}
}